{
  "contractName": "CatalystContract",
  "abi": [
    {
      "inputs": [
        {
          "internalType": "address",
          "name": "trusteeWallet",
          "type": "address"
        },
        {
          "internalType": "address",
          "name": "sponsorWallet",
          "type": "address"
        },
        {
          "internalType": "string",
          "name": "sponsorObject",
          "type": "string"
        }
      ],
      "stateMutability": "nonpayable",
      "type": "constructor"
    },
    {
      "inputs": [],
      "name": "getTrustee",
      "outputs": [
        {
          "internalType": "address",
          "name": "",
          "type": "address"
        }
      ],
      "stateMutability": "view",
      "type": "function"
    },
    {
      "inputs": [],
      "name": "getSponsor",
      "outputs": [
        {
          "internalType": "address",
          "name": "",
          "type": "address"
        }
      ],
      "stateMutability": "view",
      "type": "function"
    },
    {
      "inputs": [],
      "name": "getObject",
      "outputs": [
        {
          "internalType": "string",
          "name": "",
          "type": "string"
        }
      ],
      "stateMutability": "view",
      "type": "function"
    },
    {
      "inputs": [
        {
          "internalType": "string",
          "name": "sponsorObject",
          "type": "string"
        }
      ],
      "name": "setObject",
      "outputs": [],
      "stateMutability": "nonpayable",
      "type": "function"
    },
    {
      "inputs": [
        {
          "internalType": "address",
          "name": "donor",
          "type": "address"
        }
      ],
      "name": "getDonorAmount",
      "outputs": [
        {
          "internalType": "uint256",
          "name": "",
          "type": "uint256"
        }
      ],
      "stateMutability": "view",
      "type": "function"
    },
    {
      "inputs": [],
      "name": "getTotalAmount",
      "outputs": [
        {
          "internalType": "uint256",
          "name": "",
          "type": "uint256"
        }
      ],
      "stateMutability": "view",
      "type": "function"
    },
    {
      "inputs": [],
      "name": "donate",
      "outputs": [],
      "stateMutability": "payable",
      "type": "function"
    },
    {
      "inputs": [],
      "name": "withdraw",
      "outputs": [],
      "stateMutability": "nonpayable",
      "type": "function"
    }
  ],
  "bytecode": "0x60806040523480156200001157600080fd5b5060405162001087380380620010878339818101604052810190620000379190620002d5565b826000806101000a81548173ffffffffffffffffffffffffffffffffffffffff021916908373ffffffffffffffffffffffffffffffffffffffff16021790555081600160006101000a81548173ffffffffffffffffffffffffffffffffffffffff021916908373ffffffffffffffffffffffffffffffffffffffff1602179055508060029081620000c991906200059b565b5050505062000682565b6000604051905090565b600080fd5b600080fd5b600073ffffffffffffffffffffffffffffffffffffffff82169050919050565b60006200011482620000e7565b9050919050565b620001268162000107565b81146200013257600080fd5b50565b60008151905062000146816200011b565b92915050565b600080fd5b600080fd5b6000601f19601f8301169050919050565b7f4e487b7100000000000000000000000000000000000000000000000000000000600052604160045260246000fd5b620001a18262000156565b810181811067ffffffffffffffff82111715620001c357620001c262000167565b5b80604052505050565b6000620001d8620000d3565b9050620001e6828262000196565b919050565b600067ffffffffffffffff82111562000209576200020862000167565b5b620002148262000156565b9050602081019050919050565b60005b838110156200024157808201518184015260208101905062000224565b8381111562000251576000848401525b50505050565b60006200026e6200026884620001eb565b620001cc565b9050828152602081018484840111156200028d576200028c62000151565b5b6200029a84828562000221565b509392505050565b600082601f830112620002ba57620002b96200014c565b5b8151620002cc84826020860162000257565b91505092915050565b600080600060608486031215620002f157620002f0620000dd565b5b6000620003018682870162000135565b9350506020620003148682870162000135565b925050604084015167ffffffffffffffff811115620003385762000337620000e2565b5b6200034686828701620002a2565b9150509250925092565b600081519050919050565b7f4e487b7100000000000000000000000000000000000000000000000000000000600052602260045260246000fd5b60006002820490506001821680620003a357607f821691505b602082108103620003b957620003b86200035b565b5b50919050565b60008190508160005260206000209050919050565b60006020601f8301049050919050565b600082821b905092915050565b600060088302620004237fffffffffffffffffffffffffffffffffffffffffffffffffffffffffffffffff82620003e4565b6200042f8683620003e4565b95508019841693508086168417925050509392505050565b6000819050919050565b6000819050919050565b60006200047c62000476620004708462000447565b62000451565b62000447565b9050919050565b6000819050919050565b62000498836200045b565b620004b0620004a78262000483565b848454620003f1565b825550505050565b600090565b620004c7620004b8565b620004d48184846200048d565b505050565b5b81811015620004fc57620004f0600082620004bd565b600181019050620004da565b5050565b601f8211156200054b576200051581620003bf565b6200052084620003d4565b8101602085101562000530578190505b620005486200053f85620003d4565b830182620004d9565b50505b505050565b600082821c905092915050565b6000620005706000198460080262000550565b1980831691505092915050565b60006200058b83836200055d565b9150826002028217905092915050565b620005a68262000350565b67ffffffffffffffff811115620005c257620005c162000167565b5b620005ce82546200038a565b620005db82828562000500565b600060209050601f831160018114620006135760008415620005fe578287015190505b6200060a85826200057d565b8655506200067a565b601f1984166200062386620003bf565b60005b828110156200064d5784890151825560018201915060208501945060208101905062000626565b868310156200066d578489015162000669601f8916826200055d565b8355505b6001600288020188555050505b505050505050565b6109f580620006926000396000f3fe60806040526004361061007b5760003560e01c806365ac43411161004e57806365ac43411461011657806394b9eac514610141578063ed88c68e1461017e578063f1152677146101885761007b565b80630e3618f1146100805780632b2e00d3146100a95780633ccfd60b146100d45780636216b6e3146100eb575b600080fd5b34801561008c57600080fd5b506100a760048036038101906100a29190610505565b6101b3565b005b3480156100b557600080fd5b506100be6101c6565b6040516100cb91906105d6565b60405180910390f35b3480156100e057600080fd5b506100e9610258565b005b3480156100f757600080fd5b506101006102c1565b60405161010d9190610639565b60405180910390f35b34801561012257600080fd5b5061012b6102ea565b604051610138919061066d565b60405180910390f35b34801561014d57600080fd5b50610168600480360381019061016391906106b4565b6102f2565b604051610175919061066d565b60405180910390f35b61018661033b565b005b34801561019457600080fd5b5061019d610381565b6040516101aa9190610639565b60405180910390f35b80600290816101c291906108ed565b5050565b6060600280546101d590610710565b80601f016020809104026020016040519081016040528092919081815260200182805461020190610710565b801561024e5780601f106102235761010080835404028352916020019161024e565b820191906000526020600020905b81548152906001019060200180831161023157829003601f168201915b5050505050905090565b60008054906101000a900473ffffffffffffffffffffffffffffffffffffffff1673ffffffffffffffffffffffffffffffffffffffff166108fc479081150290604051600060405180830381858888f193505050501580156102be573d6000803e3d6000fd5b50565b60008060009054906101000a900473ffffffffffffffffffffffffffffffffffffffff16905090565b600047905090565b6000600360008373ffffffffffffffffffffffffffffffffffffffff1673ffffffffffffffffffffffffffffffffffffffff168152602001908152602001600020549050919050565b34600360003373ffffffffffffffffffffffffffffffffffffffff1673ffffffffffffffffffffffffffffffffffffffff16815260200190815260200160002081905550565b6000600160009054906101000a900473ffffffffffffffffffffffffffffffffffffffff16905090565b6000604051905090565b600080fd5b600080fd5b600080fd5b600080fd5b6000601f19601f8301169050919050565b7f4e487b7100000000000000000000000000000000000000000000000000000000600052604160045260246000fd5b610412826103c9565b810181811067ffffffffffffffff82111715610431576104306103da565b5b80604052505050565b60006104446103ab565b90506104508282610409565b919050565b600067ffffffffffffffff8211156104705761046f6103da565b5b610479826103c9565b9050602081019050919050565b82818337600083830152505050565b60006104a86104a384610455565b61043a565b9050828152602081018484840111156104c4576104c36103c4565b5b6104cf848285610486565b509392505050565b600082601f8301126104ec576104eb6103bf565b5b81356104fc848260208601610495565b91505092915050565b60006020828403121561051b5761051a6103b5565b5b600082013567ffffffffffffffff811115610539576105386103ba565b5b610545848285016104d7565b91505092915050565b600081519050919050565b600082825260208201905092915050565b60005b8381101561058857808201518184015260208101905061056d565b83811115610597576000848401525b50505050565b60006105a88261054e565b6105b28185610559565b93506105c281856020860161056a565b6105cb816103c9565b840191505092915050565b600060208201905081810360008301526105f0818461059d565b905092915050565b600073ffffffffffffffffffffffffffffffffffffffff82169050919050565b6000610623826105f8565b9050919050565b61063381610618565b82525050565b600060208201905061064e600083018461062a565b92915050565b6000819050919050565b61066781610654565b82525050565b6000602082019050610682600083018461065e565b92915050565b61069181610618565b811461069c57600080fd5b50565b6000813590506106ae81610688565b92915050565b6000602082840312156106ca576106c96103b5565b5b60006106d88482850161069f565b91505092915050565b7f4e487b7100000000000000000000000000000000000000000000000000000000600052602260045260246000fd5b6000600282049050600182168061072857607f821691505b60208210810361073b5761073a6106e1565b5b50919050565b60008190508160005260206000209050919050565b60006020601f8301049050919050565b600082821b905092915050565b6000600883026107a37fffffffffffffffffffffffffffffffffffffffffffffffffffffffffffffffff82610766565b6107ad8683610766565b95508019841693508086168417925050509392505050565b6000819050919050565b60006107ea6107e56107e084610654565b6107c5565b610654565b9050919050565b6000819050919050565b610804836107cf565b610818610810826107f1565b848454610773565b825550505050565b600090565b61082d610820565b6108388184846107fb565b505050565b5b8181101561085c57610851600082610825565b60018101905061083e565b5050565b601f8211156108a15761087281610741565b61087b84610756565b8101602085101561088a578190505b61089e61089685610756565b83018261083d565b50505b505050565b600082821c905092915050565b60006108c4600019846008026108a6565b1980831691505092915050565b60006108dd83836108b3565b9150826002028217905092915050565b6108f68261054e565b67ffffffffffffffff81111561090f5761090e6103da565b5b6109198254610710565b610924828285610860565b600060209050601f8311600181146109575760008415610945578287015190505b61094f85826108d1565b8655506109b7565b601f19841661096586610741565b60005b8281101561098d57848901518255600182019150602085019450602081019050610968565b868310156109aa57848901516109a6601f8916826108b3565b8355505b6001600288020188555050505b50505050505056fea264697066735822122071c35927ce1496478b374559d9d649ffa9011affc77429505d3207bcac06cef664736f6c634300080f0033",
  "immutableReferences": {},
  "source": "// SPDX-License-Identifier: MIT\npragma solidity ^0.8.0;\n\ncontract CatalystContract {\n    // store\n\taddress private trustee;\n\taddress private sponsor;\n\tstring private object;\n\tmapping(address=>uint) private donorsList;\n\t\n\t// constructor\n\tconstructor(address trusteeWallet, address sponsorWallet, string memory sponsorObject) {\n\t\ttrustee = trusteeWallet;\n\t\tsponsor = sponsorWallet;\n\t\tobject = sponsorObject;\n\t}\n\t\n\t// functions\n\tfunction getTrustee() public view returns (address) {\n\t\treturn trustee;\n\t}\n\t\n\tfunction getSponsor() public view returns (address) {\n\t\treturn sponsor;\n\t}\n\t\n\tfunction getObject() public view returns (string memory) {\n\t\treturn object;\n\t}\n\t\n\tfunction setObject(string memory sponsorObject) public {\n\t\tobject = sponsorObject;\n\t}\n\n\tfunction getDonorAmount(address donor) public view returns (uint) {\n\t\treturn donorsList[donor];\n\t}\n\n\tfunction getTotalAmount() public view returns (uint) {\n\t\treturn address(this).balance;\n\t}\n\t\n\tfunction donate() public payable {\n\t\tdonorsList[msg.sender] = msg.value;\n\t\t// payable(msg.sender).transfer(msg.value);\n\t}\n\n    function withdraw() public {\n        // require(msg.sender==trustee);\n        payable(trustee).transfer(address(this).balance);\n\t}\n}",
  "sourcePath": "/projects/Catalyst/contracts/CatalystContract.sol",
  "compiler": {
    "name": "solc",
    "version": "0.8.15+commit.e14f2714.Emscripten.clang"
  },
  "schemaVersion": "3.4.8",
  "updatedAt": "2022-07-23T13:50:22.421Z",
  "devdoc": {
    "kind": "dev",
    "methods": {},
    "version": 1
  },
  "userdoc": {
    "kind": "user",
    "methods": {},
    "version": 1
  }
}